:020000040000FA
:02000000030AF1
:0400020000080008EA
:0A0006006600DF0C060061007000C8
:1000100071007200730074007500970C020066078F
:100020003E0A43092B0A020C54014306180A1C0A13
:1000300011023200020CF40111023300120293008B
:1000400083000306240A2B0A040CF401B002030CFB
:10005000900143067000000C90014306A604010CB9
:1000600090014306A605020C900143064F097D0C42
:100070008100030661000306B1020F0A040C54015B
:100080004306130A2B0AFD0C7401FB0C74010008D3
:10009000200CA60111023500010CB4010008110268
:1000A00033001502B300010C540143063E0C3F0C13
:0800B000B30003064809000833
:021FFE00EA0FE8
:00000001FF
